S0110000302D3939636F756E742E737265631B
S11300000C942A000C943F000C943F000C943F0085
S11300100C943F000C943F000C943F000C943F0060
S11300200C943F000C943F000C943F000C943F0050
S11300300C943F000C943F000C943F000C943F0040
S11300400C943F000C943F000C943F000C943F0030
S11300500C943F0011241FBECFE5D4E0DEBFCDBF1A
S113006010E0A0E6B0E0ECEEF0E002C005900D92E6
S1130070AA36B107D9F70E9441000C9474000C947D
S11300800000CF93DF93CDB7DEB72A970FB6F8946D
S1130090DEBF0FBECDBF8FEF87BB8ABB8AE0E0E631
S11300A0F0E0DE01119601900D928A95E1F730E0BF
S11300B0BE01655F7F4F40E011C02C9128BB2191A8
S11300C02BBB83E294EF0197F1F700C00000E61721
S11300D0F70799F73F5F3A3008F0342FFE01319665
S10F00E0DF01A30FB11DE9CFF894FFCF9E
S10D00ECFC60DAF266B6BEE0FEF630
S9030000FC
